{
  "_format": "hh-sol-artifact-1",
  "contractName": "CompanyCoin",
  "sourceName": "contracts/CompanyCoin.sol",
  "abi": [
    {
      "inputs": [],
      "stateMutability": "nonpayable",
      "type": "constructor"
    },
    {
      "anonymous": false,
      "inputs": [
        {
          "indexed": true,
          "internalType": "address",
          "name": "owner",
          "type": "address"
        },
        {
          "indexed": true,
          "internalType": "address",
          "name": "spender",
          "type": "address"
        },
        {
          "indexed": false,
          "internalType": "uint256",
          "name": "value",
          "type": "uint256"
        }
      ],
      "name": "Approval",
      "type": "event"
    },
    {
      "anonymous": false,
      "inputs": [
        {
          "indexed": true,
          "internalType": "address",
          "name": "previousOwner",
          "type": "address"
        },
        {
          "indexed": true,
          "internalType": "address",
          "name": "newOwner",
          "type": "address"
        }
      ],
      "name": "OwnershipTransferred",
      "type": "event"
    },
    {
      "anonymous": false,
      "inputs": [
        {
          "indexed": true,
          "internalType": "address",
          "name": "from",
          "type": "address"
        },
        {
          "indexed": true,
          "internalType": "address",
          "name": "to",
          "type": "address"
        },
        {
          "indexed": false,
          "internalType": "uint256",
          "name": "value",
          "type": "uint256"
        }
      ],
      "name": "Transfer",
      "type": "event"
    },
    {
      "stateMutability": "payable",
      "type": "fallback"
    },
    {
      "inputs": [
        {
          "internalType": "address",
          "name": "owner",
          "type": "address"
        },
        {
          "internalType": "address",
          "name": "spender",
          "type": "address"
        }
      ],
      "name": "allowance",
      "outputs": [
        {
          "internalType": "uint256",
          "name": "",
          "type": "uint256"
        }
      ],
      "stateMutability": "view",
      "type": "function"
    },
    {
      "inputs": [
        {
          "internalType": "address",
          "name": "spender",
          "type": "address"
        },
        {
          "internalType": "uint256",
          "name": "amount",
          "type": "uint256"
        }
      ],
      "name": "approve",
      "outputs": [
        {
          "internalType": "bool",
          "name": "",
          "type": "bool"
        }
      ],
      "stateMutability": "nonpayable",
      "type": "function"
    },
    {
      "inputs": [
        {
          "internalType": "address",
          "name": "account",
          "type": "address"
        }
      ],
      "name": "balanceOf",
      "outputs": [
        {
          "internalType": "uint256",
          "name": "",
          "type": "uint256"
        }
      ],
      "stateMutability": "view",
      "type": "function"
    },
    {
      "inputs": [],
      "name": "decimals",
      "outputs": [
        {
          "internalType": "uint8",
          "name": "",
          "type": "uint8"
        }
      ],
      "stateMutability": "view",
      "type": "function"
    },
    {
      "inputs": [
        {
          "internalType": "address",
          "name": "spender",
          "type": "address"
        },
        {
          "internalType": "uint256",
          "name": "subtractedValue",
          "type": "uint256"
        }
      ],
      "name": "decreaseAllowance",
      "outputs": [
        {
          "internalType": "bool",
          "name": "",
          "type": "bool"
        }
      ],
      "stateMutability": "nonpayable",
      "type": "function"
    },
    {
      "inputs": [
        {
          "internalType": "address",
          "name": "spender",
          "type": "address"
        },
        {
          "internalType": "uint256",
          "name": "addedValue",
          "type": "uint256"
        }
      ],
      "name": "increaseAllowance",
      "outputs": [
        {
          "internalType": "bool",
          "name": "",
          "type": "bool"
        }
      ],
      "stateMutability": "nonpayable",
      "type": "function"
    },
    {
      "inputs": [
        {
          "internalType": "uint256",
          "name": "amount",
          "type": "uint256"
        }
      ],
      "name": "mint",
      "outputs": [],
      "stateMutability": "payable",
      "type": "function"
    },
    {
      "inputs": [],
      "name": "name",
      "outputs": [
        {
          "internalType": "string",
          "name": "",
          "type": "string"
        }
      ],
      "stateMutability": "view",
      "type": "function"
    },
    {
      "inputs": [],
      "name": "owner",
      "outputs": [
        {
          "internalType": "address",
          "name": "",
          "type": "address"
        }
      ],
      "stateMutability": "view",
      "type": "function"
    },
    {
      "inputs": [],
      "name": "renounceOwnership",
      "outputs": [],
      "stateMutability": "nonpayable",
      "type": "function"
    },
    {
      "inputs": [],
      "name": "symbol",
      "outputs": [
        {
          "internalType": "string",
          "name": "",
          "type": "string"
        }
      ],
      "stateMutability": "view",
      "type": "function"
    },
    {
      "inputs": [],
      "name": "totalSupply",
      "outputs": [
        {
          "internalType": "uint256",
          "name": "",
          "type": "uint256"
        }
      ],
      "stateMutability": "view",
      "type": "function"
    },
    {
      "inputs": [
        {
          "internalType": "address",
          "name": "to",
          "type": "address"
        },
        {
          "internalType": "uint256",
          "name": "amount",
          "type": "uint256"
        }
      ],
      "name": "transfer",
      "outputs": [
        {
          "internalType": "bool",
          "name": "",
          "type": "bool"
        }
      ],
      "stateMutability": "nonpayable",
      "type": "function"
    },
    {
      "inputs": [
        {
          "internalType": "address",
          "name": "from",
          "type": "address"
        },
        {
          "internalType": "address",
          "name": "to",
          "type": "address"
        },
        {
          "internalType": "uint256",
          "name": "amount",
          "type": "uint256"
        }
      ],
      "name": "transferFrom",
      "outputs": [
        {
          "internalType": "bool",
          "name": "",
          "type": "bool"
        }
      ],
      "stateMutability": "nonpayable",
      "type": "function"
    },
    {
      "inputs": [
        {
          "internalType": "address",
          "name": "newOwner",
          "type": "address"
        }
      ],
      "name": "transferOwnership",
      "outputs": [],
      "stateMutability": "nonpayable",
      "type": "function"
    },
    {
      "stateMutability": "payable",
      "type": "receive"
    }
  ],
  "bytecode": "0x60806040523480156200001157600080fd5b506040518060400160405280600b81526020017f436f6d70616e79436f696e0000000000000000000000000000000000000000008152506040518060400160405280600381526020017f4350430000000000000000000000000000000000000000000000000000000000815250816003908051906020019062000096929190620001a6565b508060049080519060200190620000af929190620001a6565b505050620000d2620000c6620000d860201b60201c565b620000e060201b60201c565b620002bb565b600033905090565b6000600560009054906101000a900473ffffffffffffffffffffffffffffffffffffffff16905081600560006101000a81548173ffffffffffffffffffffffffffffffffffffffff021916908373ffffffffffffffffffffffffffffffffffffffff1602179055508173ffffffffffffffffffffffffffffffffffffffff168173ffffffffffffffffffffffffffffffffffffffff167f8be0079c531659141344cd1fd0a4f28419497f9722a3daafe3b4186f6b6457e060405160405180910390a35050565b828054620001b49062000256565b90600052602060002090601f016020900481019282620001d8576000855562000224565b82601f10620001f357805160ff191683800117855562000224565b8280016001018555821562000224579182015b828111156200022357825182559160200191906001019062000206565b5b50905062000233919062000237565b5090565b5b808211156200025257600081600090555060010162000238565b5090565b600060028204905060018216806200026f57607f821691505b602082108114156200028657620002856200028c565b5b50919050565b7f4e487b7100000000000000000000000000000000000000000000000000000000600052602260045260246000fd5b611a6380620002cb6000396000f3fe6080604052600436106100ec5760003560e01c8063715018a61161008a578063a457c2d711610059578063a457c2d7146102f3578063a9059cbb14610330578063dd62ed3e1461036d578063f2fde38b146103aa576100f3565b8063715018a61461026a5780638da5cb5b1461028157806395d89b41146102ac578063a0712d68146102d7576100f3565b806323b872dd116100c657806323b872dd14610188578063313ce567146101c557806339509351146101f057806370a082311461022d576100f3565b806306fdde03146100f5578063095ea7b31461012057806318160ddd1461015d576100f3565b366100f357005b005b34801561010157600080fd5b5061010a6103d3565b6040516101179190611385565b60405180910390f35b34801561012c57600080fd5b50610147600480360381019061014291906110f4565b610465565b604051610154919061136a565b60405180910390f35b34801561016957600080fd5b50610172610488565b60405161017f9190611507565b60405180910390f35b34801561019457600080fd5b506101af60048036038101906101aa91906110a5565b610492565b6040516101bc919061136a565b60405180910390f35b3480156101d157600080fd5b506101da6104c1565b6040516101e79190611522565b60405180910390f35b3480156101fc57600080fd5b50610217600480360381019061021291906110f4565b6104ca565b604051610224919061136a565b60405180910390f35b34801561023957600080fd5b50610254600480360381019061024f9190611040565b610501565b6040516102619190611507565b60405180910390f35b34801561027657600080fd5b5061027f610549565b005b34801561028d57600080fd5b506102966105d1565b6040516102a3919061134f565b60405180910390f35b3480156102b857600080fd5b506102c16105fb565b6040516102ce9190611385565b60405180910390f35b6102f160048036038101906102ec9190611130565b61068d565b005b3480156102ff57600080fd5b5061031a600480360381019061031591906110f4565b6106ed565b604051610327919061136a565b60405180910390f35b34801561033c57600080fd5b50610357600480360381019061035291906110f4565b610764565b604051610364919061136a565b60405180910390f35b34801561037957600080fd5b50610394600480360381019061038f9190611069565b610787565b6040516103a19190611507565b60405180910390f35b3480156103b657600080fd5b506103d160048036038101906103cc9190611040565b61080e565b005b6060600380546103e290611691565b80601f016020809104026020016040519081016040528092919081815260200182805461040e90611691565b801561045b5780601f106104305761010080835404028352916020019161045b565b820191906000526020600020905b81548152906001019060200180831161043e57829003601f168201915b5050505050905090565b600080610470610906565b905061047d81858561090e565b600191505092915050565b6000600254905090565b60008061049d610906565b90506104aa858285610ad9565b6104b5858585610b65565b60019150509392505050565b60006012905090565b6000806104d5610906565b90506104f68185856104e78589610787565b6104f19190611559565b61090e565b600191505092915050565b60008060008373ffffffffffffffffffffffffffffffffffffffff1673ffffffffffffffffffffffffffffffffffffffff168152602001908152602001600020549050919050565b610551610906565b73ffffffffffffffffffffffffffffffffffffffff1661056f6105d1565b73ffffffffffffffffffffffffffffffffffffffff16146105c5576040517f08c379a00000000000000000000000000000000000000000000000000000000081526004016105bc90611467565b60405180910390fd5b6105cf6000610de6565b565b6000600560009054906101000a900473ffffffffffffffffffffffffffffffffffffffff16905090565b60606004805461060a90611691565b80601f016020809104026020016040519081016040528092919081815260200182805461063690611691565b80156106835780601f1061065857610100808354040283529160200191610683565b820191906000526020600020905b81548152906001019060200180831161066657829003601f168201915b5050505050905090565b655af3107a40008161069f91906115af565b34146106e0576040517f08c379a00000000000000000000000000000000000000000000000000000000081526004016106d790611447565b60405180910390fd5b6106ea3382610eac565b50565b6000806106f8610906565b905060006107068286610787565b90508381101561074b576040517f08c379a0000000000000000000000000000000000000000000000000000000008152600401610742906114c7565b60405180910390fd5b610758828686840361090e565b60019250505092915050565b60008061076f610906565b905061077c818585610b65565b600191505092915050565b6000600160008473ffffffffffffffffffffffffffffffffffffffff1673ffffffffffffffffffffffffffffffffffffffff16815260200190815260200160002060008373ffffffffffffffffffffffffffffffffffffffff1673ffffffffffffffffffffffffffffffffffffffff16815260200190815260200160002054905092915050565b610816610906565b73ffffffffffffffffffffffffffffffffffffffff166108346105d1565b73ffffffffffffffffffffffffffffffffffffffff161461088a576040517f08c379a000000000000000000000000000000000000000000000000000000000815260040161088190611467565b60405180910390fd5b600073ffffffffffffffffffffffffffffffffffffffff168173ffffffffffffffffffffffffffffffffffffffff1614156108fa576040517f08c379a00000000000000000000000000000000000000000000000000000000081526004016108f1906113c7565b60405180910390fd5b61090381610de6565b50565b600033905090565b600073ffffffffffffffffffffffffffffffffffffffff168373ffffffffffffffffffffffffffffffffffffffff16141561097e576040517f08c379a0000000000000000000000000000000000000000000000000000000008152600401610975906114a7565b60405180910390fd5b600073ffffffffffffffffffffffffffffffffffffffff168273ffffffffffffffffffffffffffffffffffffffff1614156109ee576040517f08c379a00000000000000000000000000000000000000000000000000000000081526004016109e5906113e7565b60405180910390fd5b80600160008573ffffffffffffffffffffffffffffffffffffffff1673ffffffffffffffffffffffffffffffffffffffff16815260200190815260200160002060008473ffffffffffffffffffffffffffffffffffffffff1673ffffffffffffffffffffffffffffffffffffffff168152602001908152602001600020819055508173ffffffffffffffffffffffffffffffffffffffff168373ffffffffffffffffffffffffffffffffffffffff167f8c5be1e5ebec7d5bd14f71427d1e84f3dd0314c0f7b2291e5b200ac8c7c3b92583604051610acc9190611507565b60405180910390a3505050565b6000610ae58484610787565b90507fffffffffffffffffffffffffffffffffffffffffffffffffffffffffffffffff8114610b5f5781811015610b51576040517f08c379a0000000000000000000000000000000000000000000000000000000008152600401610b4890611407565b60405180910390fd5b610b5e848484840361090e565b5b50505050565b600073ffffffffffffffffffffffffffffffffffffffff168373ffffffffffffffffffffffffffffffffffffffff161415610bd5576040517f08c379a0000000000000000000000000000000000000000000000000000000008152600401610bcc90611487565b60405180910390fd5b600073ffffffffffffffffffffffffffffffffffffffff168273ffffffffffffffffffffffffffffffffffffffff161415610c45576040517f08c379a0000000000000000000000000000000000000000000000000000000008152600401610c3c906113a7565b60405180910390fd5b610c5083838361100c565b60008060008573ffffffffffffffffffffffffffffffffffffffff1673ffffffffffffffffffffffffffffffffffffffff16815260200190815260200160002054905081811015610cd6576040517f08c379a0000000000000000000000000000000000000000000000000000000008152600401610ccd90611427565b60405180910390fd5b8181036000808673ffffffffffffffffffffffffffffffffffffffff1673ffffffffffffffffffffffffffffffffffffffff16815260200190815260200160002081905550816000808573ffffffffffffffffffffffffffffffffffffffff1673ffffffffffffffffffffffffffffffffffffffff1681526020019081526020016000206000828254610d699190611559565b925050819055508273ffffffffffffffffffffffffffffffffffffffff168473ffffffffffffffffffffffffffffffffffffffff167fddf252ad1be2c89b69c2b068fc378daa952ba7f163c4a11628f55a4df523b3ef84604051610dcd9190611507565b60405180910390a3610de0848484611011565b50505050565b6000600560009054906101000a900473ffffffffffffffffffffffffffffffffffffffff16905081600560006101000a81548173ffffffffffffffffffffffffffffffffffffffff021916908373ffffffffffffffffffffffffffffffffffffffff1602179055508173ffffffffffffffffffffffffffffffffffffffff168173ffffffffffffffffffffffffffffffffffffffff167f8be0079c531659141344cd1fd0a4f28419497f9722a3daafe3b4186f6b6457e060405160405180910390a35050565b600073ffffffffffffffffffffffffffffffffffffffff168273ffffffffffffffffffffffffffffffffffffffff161415610f1c576040517f08c379a0000000000000000000000000000000000000000000000000000000008152600401610f13906114e7565b60405180910390fd5b610f286000838361100c565b8060026000828254610f3a9190611559565b92505081905550806000808473ffffffffffffffffffffffffffffffffffffffff1673ffffffffffffffffffffffffffffffffffffffff1681526020019081526020016000206000828254610f8f9190611559565b925050819055508173ffffffffffffffffffffffffffffffffffffffff16600073ffffffffffffffffffffffffffffffffffffffff167fddf252ad1be2c89b69c2b068fc378daa952ba7f163c4a11628f55a4df523b3ef83604051610ff49190611507565b60405180910390a361100860008383611011565b5050565b505050565b505050565b600081359050611025816119ff565b92915050565b60008135905061103a81611a16565b92915050565b60006020828403121561105257600080fd5b600061106084828501611016565b91505092915050565b6000806040838503121561107c57600080fd5b600061108a85828601611016565b925050602061109b85828601611016565b9150509250929050565b6000806000606084860312156110ba57600080fd5b60006110c886828701611016565b93505060206110d986828701611016565b92505060406110ea8682870161102b565b9150509250925092565b6000806040838503121561110757600080fd5b600061111585828601611016565b92505060206111268582860161102b565b9150509250929050565b60006020828403121561114257600080fd5b60006111508482850161102b565b91505092915050565b61116281611609565b82525050565b6111718161161b565b82525050565b60006111828261153d565b61118c8185611548565b935061119c81856020860161165e565b6111a581611721565b840191505092915050565b60006111bd602383611548565b91506111c882611732565b604082019050919050565b60006111e0602683611548565b91506111eb82611781565b604082019050919050565b6000611203602283611548565b915061120e826117d0565b604082019050919050565b6000611226601d83611548565b91506112318261181f565b602082019050919050565b6000611249602683611548565b915061125482611848565b604082019050919050565b600061126c601683611548565b915061127782611897565b602082019050919050565b600061128f602083611548565b915061129a826118c0565b602082019050919050565b60006112b2602583611548565b91506112bd826118e9565b604082019050919050565b60006112d5602483611548565b91506112e082611938565b604082019050919050565b60006112f8602583611548565b915061130382611987565b604082019050919050565b600061131b601f83611548565b9150611326826119d6565b602082019050919050565b61133a81611647565b82525050565b61134981611651565b82525050565b60006020820190506113646000830184611159565b92915050565b600060208201905061137f6000830184611168565b92915050565b6000602082019050818103600083015261139f8184611177565b905092915050565b600060208201905081810360008301526113c0816111b0565b9050919050565b600060208201905081810360008301526113e0816111d3565b9050919050565b60006020820190508181036000830152611400816111f6565b9050919050565b6000602082019050818103600083015261142081611219565b9050919050565b600060208201905081810360008301526114408161123c565b9050919050565b600060208201905081810360008301526114608161125f565b9050919050565b6000602082019050818103600083015261148081611282565b9050919050565b600060208201905081810360008301526114a0816112a5565b9050919050565b600060208201905081810360008301526114c0816112c8565b9050919050565b600060208201905081810360008301526114e0816112eb565b9050919050565b600060208201905081810360008301526115008161130e565b9050919050565b600060208201905061151c6000830184611331565b92915050565b60006020820190506115376000830184611340565b92915050565b600081519050919050565b600082825260208201905092915050565b600061156482611647565b915061156f83611647565b9250827fffffffffffffffffffffffffffffffffffffffffffffffffffffffffffffffff038211156115a4576115a36116c3565b5b828201905092915050565b60006115ba82611647565b91506115c583611647565b9250817fffffffffffffffffffffffffffffffffffffffffffffffffffffffffffffffff04831182151516156115fe576115fd6116c3565b5b828202905092915050565b600061161482611627565b9050919050565b60008115159050919050565b600073ffffffffffffffffffffffffffffffffffffffff82169050919050565b6000819050919050565b600060ff82169050919050565b60005b8381101561167c578082015181840152602081019050611661565b8381111561168b576000848401525b50505050565b600060028204905060018216806116a957607f821691505b602082108114156116bd576116bc6116f2565b5b50919050565b7f4e487b7100000000000000000000000000000000000000000000000000000000600052601160045260246000fd5b7f4e487b7100000000000000000000000000000000000000000000000000000000600052602260045260246000fd5b6000601f19601f8301169050919050565b7f45524332303a207472616e7366657220746f20746865207a65726f206164647260008201527f6573730000000000000000000000000000000000000000000000000000000000602082015250565b7f4f776e61626c653a206e6577206f776e657220697320746865207a65726f206160008201527f6464726573730000000000000000000000000000000000000000000000000000602082015250565b7f45524332303a20617070726f766520746f20746865207a65726f20616464726560008201527f7373000000000000000000000000000000000000000000000000000000000000602082015250565b7f45524332303a20696e73756666696369656e7420616c6c6f77616e6365000000600082015250565b7f45524332303a207472616e7366657220616d6f756e742065786365656473206260008201527f616c616e63650000000000000000000000000000000000000000000000000000602082015250565b7f696e766c696420616d6f756e74206f6620657468657200000000000000000000600082015250565b7f4f776e61626c653a2063616c6c6572206973206e6f7420746865206f776e6572600082015250565b7f45524332303a207472616e736665722066726f6d20746865207a65726f20616460008201527f6472657373000000000000000000000000000000000000000000000000000000602082015250565b7f45524332303a20617070726f76652066726f6d20746865207a65726f2061646460008201527f7265737300000000000000000000000000000000000000000000000000000000602082015250565b7f45524332303a2064656372656173656420616c6c6f77616e63652062656c6f7760008201527f207a65726f000000000000000000000000000000000000000000000000000000602082015250565b7f45524332303a206d696e7420746f20746865207a65726f206164647265737300600082015250565b611a0881611609565b8114611a1357600080fd5b50565b611a1f81611647565b8114611a2a57600080fd5b5056fea2646970667358221220c907afabdd158fc0fd7dab7800d0b141316f3578103ff20991eec76d79cd26a164736f6c63430008040033",
  "linkReferences": {},
  "deployedLinkReferences": {}
}